{
  "address": "0xfdfadffe28d17935a48ffb1ab3076dbc8cade623",
  "abi": [
    {
      "inputs": [
        {
          "internalType": "address",
          "name": "_liquidityProvider",
          "type": "address"
        },
        {
          "internalType": "address",
          "name": "_oracle",
          "type": "address"
        },
        {
          "internalType": "string",
          "name": "_question",
          "type": "string"
        },
        {
          "internalType": "uint256",
          "name": "_initialTokenValue",
          "type": "uint256"
        },
        {
          "internalType": "uint8",
          "name": "_initialYesProbability",
          "type": "uint8"
        },
        {
          "internalType": "uint8",
          "name": "_percentageToLock",
          "type": "uint8"
        }
      ],
      "stateMutability": "payable",
      "type": "constructor"
    },
    {
      "inputs": [
        {
          "internalType": "address",
          "name": "owner",
          "type": "address"
        }
      ],
      "name": "OwnableInvalidOwner",
      "type": "error"
    },
    {
      "inputs": [
        {
          "internalType": "address",
          "name": "account",
          "type": "address"
        }
      ],
      "name": "OwnableUnauthorizedAccount",
      "type": "error"
    },
    {
      "inputs": [],
      "name": "PredictionMarket__AmountMustBeGreaterThanZero",
      "type": "error"
    },
    {
      "inputs": [],
      "name": "PredictionMarket__ETHTransferFailed",
      "type": "error"
    },
    {
      "inputs": [
        {
          "internalType": "uint256",
          "name": "_tradingAmount",
          "type": "uint256"
        },
        {
          "internalType": "uint256",
          "name": "_allowance",
          "type": "uint256"
        }
      ],
      "name": "PredictionMarket__InsufficientAllowance",
      "type": "error"
    },
    {
      "inputs": [
        {
          "internalType": "uint256",
          "name": "_tradingAmount",
          "type": "uint256"
        },
        {
          "internalType": "uint256",
          "name": "_userBalance",
          "type": "uint256"
        }
      ],
      "name": "PredictionMarket__InsufficientBalance",
      "type": "error"
    },
    {
      "inputs": [],
      "name": "PredictionMarket__InsufficientLiquidity",
      "type": "error"
    },
    {
      "inputs": [
        {
          "internalType": "enum PredictionMarket.Outcome",
          "name": "_outcome",
          "type": "uint8"
        },
        {
          "internalType": "uint256",
          "name": "_amountToken",
          "type": "uint256"
        }
      ],
      "name": "PredictionMarket__InsufficientTokenReserve",
      "type": "error"
    },
    {
      "inputs": [],
      "name": "PredictionMarket__InsufficientWinningTokens",
      "type": "error"
    },
    {
      "inputs": [],
      "name": "PredictionMarket__InvalidPercentageToLock",
      "type": "error"
    },
    {
      "inputs": [],
      "name": "PredictionMarket__InvalidProbability",
      "type": "error"
    },
    {
      "inputs": [],
      "name": "PredictionMarket__MustProvideETHForInitialLiquidity",
      "type": "error"
    },
    {
      "inputs": [],
      "name": "PredictionMarket__MustSendExactETHAmount",
      "type": "error"
    },
    {
      "inputs": [],
      "name": "PredictionMarket__OnlyOracleCanReport",
      "type": "error"
    },
    {
      "inputs": [],
      "name": "PredictionMarket__OwnerCannotCall",
      "type": "error"
    },
    {
      "inputs": [],
      "name": "PredictionMarket__PredictionAlreadyReported",
      "type": "error"
    },
    {
      "inputs": [],
      "name": "PredictionMarket__PredictionNotReported",
      "type": "error"
    },
    {
      "inputs": [],
      "name": "PredictionMarket__TokenTransferFailed",
      "type": "error"
    },
    {
      "anonymous": false,
      "inputs": [
        {
          "indexed": true,
          "internalType": "address",
          "name": "provider",
          "type": "address"
        },
        {
          "indexed": false,
          "internalType": "uint256",
          "name": "ethAmount",
          "type": "uint256"
        },
        {
          "indexed": false,
          "internalType": "uint256",
          "name": "tokensAmount",
          "type": "uint256"
        }
      ],
      "name": "LiquidityAdded",
      "type": "event"
    },
    {
      "anonymous": false,
      "inputs": [
        {
          "indexed": true,
          "internalType": "address",
          "name": "provider",
          "type": "address"
        },
        {
          "indexed": false,
          "internalType": "uint256",
          "name": "ethAmount",
          "type": "uint256"
        },
        {
          "indexed": false,
          "internalType": "uint256",
          "name": "tokensAmount",
          "type": "uint256"
        }
      ],
      "name": "LiquidityRemoved",
      "type": "event"
    },
    {
      "anonymous": false,
      "inputs": [
        {
          "indexed": true,
          "internalType": "address",
          "name": "oracle",
          "type": "address"
        },
        {
          "indexed": false,
          "internalType": "enum PredictionMarket.Outcome",
          "name": "winningOutcome",
          "type": "uint8"
        },
        {
          "indexed": false,
          "internalType": "address",
          "name": "winningToken",
          "type": "address"
        }
      ],
      "name": "MarketReported",
      "type": "event"
    },
    {
      "anonymous": false,
      "inputs": [
        {
          "indexed": true,
          "internalType": "address",
          "name": "resolver",
          "type": "address"
        },
        {
          "indexed": false,
          "internalType": "uint256",
          "name": "totalEthToSend",
          "type": "uint256"
        }
      ],
      "name": "MarketResolved",
      "type": "event"
    },
    {
      "anonymous": false,
      "inputs": [
        {
          "indexed": true,
          "internalType": "address",
          "name": "previousOwner",
          "type": "address"
        },
        {
          "indexed": true,
          "internalType": "address",
          "name": "newOwner",
          "type": "address"
        }
      ],
      "name": "OwnershipTransferred",
      "type": "event"
    },
    {
      "anonymous": false,
      "inputs": [
        {
          "indexed": true,
          "internalType": "address",
          "name": "buyer",
          "type": "address"
        },
        {
          "indexed": false,
          "internalType": "enum PredictionMarket.Outcome",
          "name": "outcome",
          "type": "uint8"
        },
        {
          "indexed": false,
          "internalType": "uint256",
          "name": "amount",
          "type": "uint256"
        },
        {
          "indexed": false,
          "internalType": "uint256",
          "name": "ethAmount",
          "type": "uint256"
        }
      ],
      "name": "TokensPurchased",
      "type": "event"
    },
    {
      "anonymous": false,
      "inputs": [
        {
          "indexed": true,
          "internalType": "address",
          "name": "seller",
          "type": "address"
        },
        {
          "indexed": false,
          "internalType": "enum PredictionMarket.Outcome",
          "name": "outcome",
          "type": "uint8"
        },
        {
          "indexed": false,
          "internalType": "uint256",
          "name": "amount",
          "type": "uint256"
        },
        {
          "indexed": false,
          "internalType": "uint256",
          "name": "ethAmount",
          "type": "uint256"
        }
      ],
      "name": "TokensSold",
      "type": "event"
    },
    {
      "anonymous": false,
      "inputs": [
        {
          "indexed": true,
          "internalType": "address",
          "name": "redeemer",
          "type": "address"
        },
        {
          "indexed": false,
          "internalType": "uint256",
          "name": "amount",
          "type": "uint256"
        },
        {
          "indexed": false,
          "internalType": "uint256",
          "name": "ethAmount",
          "type": "uint256"
        }
      ],
      "name": "WinningTokensRedeemed",
      "type": "event"
    },
    {
      "inputs": [],
      "name": "addLiquidity",
      "outputs": [],
      "stateMutability": "payable",
      "type": "function"
    },
    {
      "inputs": [
        {
          "internalType": "enum PredictionMarket.Outcome",
          "name": "_outcome",
          "type": "uint8"
        },
        {
          "internalType": "uint256",
          "name": "_amountTokenToBuy",
          "type": "uint256"
        }
      ],
      "name": "buyTokensWithETH",
      "outputs": [],
      "stateMutability": "payable",
      "type": "function"
    },
    {
      "inputs": [
        {
          "internalType": "enum PredictionMarket.Outcome",
          "name": "_outcome",
          "type": "uint8"
        },
        {
          "internalType": "uint256",
          "name": "_tradingAmount",
          "type": "uint256"
        }
      ],
      "name": "getBuyPriceInEth",
      "outputs": [
        {
          "internalType": "uint256",
          "name": "",
          "type": "uint256"
        }
      ],
      "stateMutability": "view",
      "type": "function"
    },
    {
      "inputs": [],
      "name": "getPrediction",
      "outputs": [
        {
          "internalType": "string",
          "name": "question",
          "type": "string"
        },
        {
          "internalType": "string",
          "name": "outcome1",
          "type": "string"
        },
        {
          "internalType": "string",
          "name": "outcome2",
          "type": "string"
        },
        {
          "internalType": "address",
          "name": "oracle",
          "type": "address"
        },
        {
          "internalType": "uint256",
          "name": "initialTokenValue",
          "type": "uint256"
        },
        {
          "internalType": "uint256",
          "name": "yesTokenReserve",
          "type": "uint256"
        },
        {
          "internalType": "uint256",
          "name": "noTokenReserve",
          "type": "uint256"
        },
        {
          "internalType": "bool",
          "name": "isReported",
          "type": "bool"
        },
        {
          "internalType": "address",
          "name": "yesToken",
          "type": "address"
        },
        {
          "internalType": "address",
          "name": "noToken",
          "type": "address"
        },
        {
          "internalType": "address",
          "name": "winningToken",
          "type": "address"
        },
        {
          "internalType": "uint256",
          "name": "ethCollateral",
          "type": "uint256"
        },
        {
          "internalType": "uint256",
          "name": "lpTradingRevenue",
          "type": "uint256"
        },
        {
          "internalType": "address",
          "name": "predictionMarketOwner",
          "type": "address"
        },
        {
          "internalType": "uint256",
          "name": "initialProbability",
          "type": "uint256"
        },
        {
          "internalType": "uint256",
          "name": "percentageLocked",
          "type": "uint256"
        }
      ],
      "stateMutability": "view",
      "type": "function"
    },
    {
      "inputs": [
        {
          "internalType": "enum PredictionMarket.Outcome",
          "name": "_outcome",
          "type": "uint8"
        },
        {
          "internalType": "uint256",
          "name": "_tradingAmount",
          "type": "uint256"
        }
      ],
      "name": "getSellPriceInEth",
      "outputs": [
        {
          "internalType": "uint256",
          "name": "",
          "type": "uint256"
        }
      ],
      "stateMutability": "view",
      "type": "function"
    },
    {
      "inputs": [],
      "name": "i_initialTokenValue",
      "outputs": [
        {
          "internalType": "uint256",
          "name": "",
          "type": "uint256"
        }
      ],
      "stateMutability": "view",
      "type": "function"
    },
    {
      "inputs": [],
      "name": "i_initialYesProbability",
      "outputs": [
        {
          "internalType": "uint256",
          "name": "",
          "type": "uint256"
        }
      ],
      "stateMutability": "view",
      "type": "function"
    },
    {
      "inputs": [],
      "name": "i_noToken",
      "outputs": [
        {
          "internalType": "contract PredictionMarketToken",
          "name": "",
          "type": "address"
        }
      ],
      "stateMutability": "view",
      "type": "function"
    },
    {
      "inputs": [],
      "name": "i_oracle",
      "outputs": [
        {
          "internalType": "address",
          "name": "",
          "type": "address"
        }
      ],
      "stateMutability": "view",
      "type": "function"
    },
    {
      "inputs": [],
      "name": "i_percentageLocked",
      "outputs": [
        {
          "internalType": "uint256",
          "name": "",
          "type": "uint256"
        }
      ],
      "stateMutability": "view",
      "type": "function"
    },
    {
      "inputs": [],
      "name": "i_yesToken",
      "outputs": [
        {
          "internalType": "contract PredictionMarketToken",
          "name": "",
          "type": "address"
        }
      ],
      "stateMutability": "view",
      "type": "function"
    },
    {
      "inputs": [],
      "name": "owner",
      "outputs": [
        {
          "internalType": "address",
          "name": "",
          "type": "address"
        }
      ],
      "stateMutability": "view",
      "type": "function"
    },
    {
      "inputs": [
        {
          "internalType": "uint256",
          "name": "_amount",
          "type": "uint256"
        }
      ],
      "name": "redeemWinningTokens",
      "outputs": [],
      "stateMutability": "nonpayable",
      "type": "function"
    },
    {
      "inputs": [
        {
          "internalType": "uint256",
          "name": "_ethToWithdraw",
          "type": "uint256"
        }
      ],
      "name": "removeLiquidity",
      "outputs": [],
      "stateMutability": "nonpayable",
      "type": "function"
    },
    {
      "inputs": [],
      "name": "renounceOwnership",
      "outputs": [],
      "stateMutability": "nonpayable",
      "type": "function"
    },
    {
      "inputs": [
        {
          "internalType": "enum PredictionMarket.Outcome",
          "name": "_winningOutcome",
          "type": "uint8"
        }
      ],
      "name": "report",
      "outputs": [],
      "stateMutability": "nonpayable",
      "type": "function"
    },
    {
      "inputs": [],
      "name": "resolveMarketAndWithdraw",
      "outputs": [
        {
          "internalType": "uint256",
          "name": "ethRedeemed",
          "type": "uint256"
        }
      ],
      "stateMutability": "nonpayable",
      "type": "function"
    },
    {
      "inputs": [],
      "name": "s_ethCollateral",
      "outputs": [
        {
          "internalType": "uint256",
          "name": "",
          "type": "uint256"
        }
      ],
      "stateMutability": "view",
      "type": "function"
    },
    {
      "inputs": [],
      "name": "s_isReported",
      "outputs": [
        {
          "internalType": "bool",
          "name": "",
          "type": "bool"
        }
      ],
      "stateMutability": "view",
      "type": "function"
    },
    {
      "inputs": [],
      "name": "s_lpTradingRevenue",
      "outputs": [
        {
          "internalType": "uint256",
          "name": "",
          "type": "uint256"
        }
      ],
      "stateMutability": "view",
      "type": "function"
    },
    {
      "inputs": [],
      "name": "s_question",
      "outputs": [
        {
          "internalType": "string",
          "name": "",
          "type": "string"
        }
      ],
      "stateMutability": "view",
      "type": "function"
    },
    {
      "inputs": [],
      "name": "s_winningToken",
      "outputs": [
        {
          "internalType": "contract PredictionMarketToken",
          "name": "",
          "type": "address"
        }
      ],
      "stateMutability": "view",
      "type": "function"
    },
    {
      "inputs": [
        {
          "internalType": "enum PredictionMarket.Outcome",
          "name": "_outcome",
          "type": "uint8"
        },
        {
          "internalType": "uint256",
          "name": "_tradingAmount",
          "type": "uint256"
        }
      ],
      "name": "sellTokensForEth",
      "outputs": [],
      "stateMutability": "nonpayable",
      "type": "function"
    },
    {
      "inputs": [
        {
          "internalType": "address",
          "name": "newOwner",
          "type": "address"
        }
      ],
      "name": "transferOwnership",
      "outputs": [],
      "stateMutability": "nonpayable",
      "type": "function"
    }
  ],
  "contractName": "PredictionMarket",
  "sourceName": "contracts/PredictionMarket.sol",
  "bytecode": "0x610140604090808252620031e980380380916200001d8285620006d8565b833981019160c0918281850312620006d4576200003a81620006fc565b9160206200004a818401620006fc565b8383015190946001600160401b03949091858111620006d457810190601f898184011215620006d457825199878b116200055157865193601f19929162000098838e018516890187620006d8565b8c8652878d83010111620006d4575f5b8c8110620006c05750505f86620000d59c86010152606083015191620000dd60a060809d8e870162000711565b950162000711565b6001600160a01b039690949087168015620006a9575f80546001600160a01b03198116831782558b519291908a16907f8be0079c531659141344cd1fd0a4f28419497f9722a3daafe3b4186f6b6457e09080a334156200069a575060ff16936064851080159062000691575b620006805760ff169960648b1080159062000677575b62000666578c5284519189831162000551576001958654928784811c941680156200065b575b8a85101462000647578383869511620005f0575b50899284116001146200058f57505f9262000583575b50505f19600383901b1c191690841b1783555b8060a0528160e05287895234600255670de0b6b3a76400008034029034820403620005335781156200056f5704855196610d5d808901898110838211176200055157898d91878e60036200248c95878787398085528401526259657360e81b60a0840152808c840152820152605960f81b60e0820152338b8201528560608201526101009b8c910301905ff0801562000565578a5288519282840190811184821017620005515760028e8c9486948539808352820152614e6f60f01b60a08201528c89820152868d820152602760f91b60e0820152338a8201528460608201520301905ff09788156200054757610120988952620002cc81620002c6858562000720565b62000720565b9283851b9380850460021490151715620005335760640360ff81116200053357620003009260ff620002c692169062000720565b80921b918083046002149015171562000533578551855163a9059cbb60e01b808252336004830152612710938490046024830152909390918690859060449082905f908a165af1938415620005295790869392915f9562000500575b508951885192835233600484015292900460248201529293839116815f81604481015b03925af1928315620004f6575f93620004c0575b505015908115620004b6575b50620004a6575192611d3d94856200074f8639518481816105a101528181610b100152611136015260a05184818161024e0152818161040e015281816105c80152818161076c015281816110a6015281816111cb015261195b0152518381816106520152610a7c015260e0518381816101d8015261062b01525182818161027e015281816104c1015281816107c901528181610b6401528181610c2601528181610cf5015281816113cb0152818161189e015281816119f901528181611aef0152611c3e0152518181816102e90152818161049d0152818161080a01528181610bba01528181610f10015281816113120152818161152c01528181611b360152611bf70152f35b516318161dad60e21b8152600490fd5b9050155f6200039f565b620004e5929350803d10620004ee575b620004dc8183620006d8565b81019062000734565b905f8062000393565b503d620004d0565b84513d5f823e3d90fd5b6200037f9550620005215f91863d8811620004ee57620004dc8183620006d8565b95506200035c565b87513d5f823e3d90fd5b634e487b7160e01b5f52601160045260245ffd5b86513d5f823e3d90fd5b634e487b7160e01b5f52604160045260245ffd5b89513d5f823e3d90fd5b634e487b7160e01b5f52601260045260245ffd5b015190505f80620001af565b87949291921691845f52895f20925f5b8b828210620005d95750508411620005c0575b505050811b018355620001c2565b01515f1960f88460031b161c191690555f8080620005b2565b8385015186558a979095019493840193016200059f565b9091929350875f52895f208480870160051c8201928c88106200063d575b9187968b92969594930160051c01915b8281106200062e57505062000199565b5f81558796508a91016200061e565b925081926200060e565b634e487b7160e01b5f52602260045260245ffd5b93607f169362000185565b885163103731c360e21b8152600490fd5b508a156200015f565b88516324f7391760e21b8152600490fd5b50841562000149565b63fe6ef5a160e01b8152600490fd5b8951631e4fbdf760e01b81525f6004820152602490fd5b8181018801518682018901528701620000a8565b5f80fd5b601f909101601f19168101906001600160401b038211908210176200055157604052565b51906001600160a01b0382168203620006d457565b519060ff82168203620006d457565b818102929181159184041417156200053357565b90816020910312620006d457518015158103620006d4579056fe6080604081815260049081361015610015575f80fd5b5f92833560e01c90816306a9cd5e146113765750806314926d98146113415780631816ca6f146112fd5780632dc7fd76146112e15780634c5b59a5146111655780635cb2deb51461112157806365e23abc14610f7557806370a38aee14610cae578063715018a614610c5557806379b3d94a14610c115780637c1bb47e14610bee578063892d0f5014610ae65780638da5cb5b14610abe5780638dfeb95214610a9f578063910ec81b14610a6457806391c721e314610a3c5780639c8f9f231461073a5780639f615ee11461045a578063aa7a939914610431578063ac3b90bb146103f6578063df592ec3146103d7578063e8078d94146101ff578063f1ce1640146101c05763f2fde38b14610129575f80fd5b346101bc5760203660031901126101bc576001600160a01b038235818116939192908490036101b85761015a611730565b83156101a25750505f54826bffffffffffffffffffffffff60a01b8216175f55167f8be0079c531659141344cd1fd0a4f28419497f9722a3daafe3b4186f6b6457e05f80a380f35b51631e4fbdf760e01b8152908101849052602490fd5b8480fd5b8280fd5b8382346101fb57816003193601126101fb57602090517f00000000000000000000000000000000000000000000000000000000000000008152f35b5080fd5b50826003193601126101bc57610213611730565b60ff825460a01c166103ca5761022b3460025461175b565b600255670de0b6b3a76400008034029034820414341517156103b75761027384917f0000000000000000000000000000000000000000000000000000000000000000906117ac565b926001600160a01b037f000000000000000000000000000000000000000000000000000000000000000081169190823b156103955784516340c10f1960e01b80825230848301908152602081018990529094869183919082908490829060400103925af180156103ad57908591610399575b50507f00000000000000000000000000000000000000000000000000000000000000001691823b15610395578451908152309181019182526020820186905291839183919082908490829060400103925af1801561038b57610377575b5050807fac1d76749e5447b7b16f5ab61447e1bd502f3bb4807af3b28e620d1700a6ee4591519234845260208401523392a280f35b610380906115ba565b6101bc57825f610342565b83513d84823e3d90fd5b8380fd5b6103a2906115ba565b61039557835f6102e5565b86513d87823e3d90fd5b634e487b7160e01b845260118352602484fd5b516378e34bb960e01b8152fd5b8382346101fb57816003193601126101fb576020906002549051908152f35b8382346101fb57816003193601126101fb57602090517f00000000000000000000000000000000000000000000000000000000000000008152f35b5082346104575780600319360112610457575060ff6020925460a01c1690519015158152f35b80fd5b508290346101fb57816003193601126101fb57610475611604565b600254600354845484516306fdde0360e01b80825294966001600160a01b03928316959394937f00000000000000000000000000000000000000000000000000000000000000008416917f000000000000000000000000000000000000000000000000000000000000000085169181858d81865afa94851561071457829561071e575b50895190815281818d81875afa9081156107145782916106f2575b508951996370a0823160e01b9c8d8c5230818d015260209d8e8d602481895afa9c8d156106e8578f90869e6106b9575b5083519182523083830152816024818a5afa9485156106ae579461067b575b50549581519d8e809e610200808352820161057c9161170b565b9181830391015261058c9161170b565b908c8203908d015261059d9161170b565b98857f00000000000000000000000000000000000000000000000000000000000000001660608c01527f000000000000000000000000000000000000000000000000000000000000000060808c015260a08b015260c08a01528260a01c60ff16151560e08a0152610100890152610120880152166101408601526101608501526101808401526101a08301527f00000000000000000000000000000000000000000000000000000000000000006101c08301527f00000000000000000000000000000000000000000000000000000000000000006101e08301520390f35b9093508d81813d83116106a7575b61069381836115e2565b810103126106a35751928e610562565b5f80fd5b503d610689565b8351903d90823e3d90fd5b809e50813d83116106e1575b6106cf81836115e2565b810103126106a3578e9c519c5f610543565b503d6106c5565b83513d87823e3d90fd5b61070e91503d8084833e61070681836115e2565b810190611ca5565b8c610513565b8a513d84823e3d90fd5b6107339195503d8084833e61070681836115e2565b938c6104f8565b508290346101fb57602090816003193601126101bc5783359161075b611730565b60ff855460a01c16610a2c576107917f0000000000000000000000000000000000000000000000000000000000000000846117ac565b90670de0b6b3a764000091828102928184041490151715610a195782516370a0823160e01b8082523088830152906001600160a01b037f00000000000000000000000000000000000000000000000000000000000000008116918481602481865afa908115610a0f5789916109e2575b5085116109c5577f00000000000000000000000000000000000000000000000000000000000000001691855190815230898201528381602481865afa908115610970578891610998575b50841161097a5761085e866002546117eb565b600255803b15610958578451632770a7eb60e21b80825230828b01908152602081018790529092899183919082908490829060400103925af180156109705790889161095c575b5050813b1561095857845190815230818901908152602081018590529091879183919082908490829060400103925af1801561094e5790869161093a575b5080808087335af16108f3611814565b501561092a57825193845283015233917f96cd817c6329656790ef8fba7675405193677d39619571282f5e21f3a98cd0599190a280f35b8251632fdb18b560e01b81528690fd5b610943906115ba565b6101b85784876108e3565b84513d88823e3d90fd5b8680fd5b610965906115ba565b6109585786896108a5565b86513d8a823e3d90fd5b845163a4d71b8160e01b81526001818a015260248101859052604490fd5b90508381813d83116109be575b6109af81836115e2565b810103126106a357518961084b565b503d6109a5565b855163a4d71b8160e01b81525f818b015260248101869052604490fd5b90508481813d8311610a08575b6109f981836115e2565b810103126106a357518a610801565b503d6109ef565b87513d8b823e3d90fd5b634e487b7160e01b855260118652602485fd5b81516378e34bb960e01b81528590fd5b5090346101bc57826003193601126101bc575490516001600160a01b03909116815260209150f35b8382346101fb57816003193601126101fb57602090517f00000000000000000000000000000000000000000000000000000000000000008152f35b8382346101fb57816003193601126101fb576020906003549051908152f35b8382346101fb57816003193601126101fb57905490516001600160a01b039091168152602090f35b508290346101fb5760203660031901126101fb5782359060028210156101bc576001600160a01b037f000000000000000000000000000000000000000000000000000000000000000081163303610bde57929391927f54abe5cff8746fc59eefd3a10a4e9821354cd951ffef23d64fdb7939b6e2e4199284610bb8577f00000000000000000000000000000000000000000000000000000000000000005b81546001600160a81b03191690831617600160a01b1790819055825194610bac9086906117ca565b1660208401523392a280f35b7f0000000000000000000000000000000000000000000000000000000000000000610b84565b815163d101b32160e01b81528590fd5b8382346101fb57602090610c0a610c043661159b565b906119da565b9051908152f35b8382346101fb57816003193601126101fb57517f00000000000000000000000000000000000000000000000000000000000000006001600160a01b03168152602090f35b8334610457578060031936011261045757610c6e611730565b5f80546001600160a01b0319811682556001600160a01b03167f8be0079c531659141344cd1fd0a4f28419497f9722a3daafe3b4186f6b6457e08280a380f35b5090346101bc57610cbe3661159b565b90928115610f665760ff835460a01c16610f575784546001600160a01b039081163314610f47576002851015610f345784610f0e577f00000000000000000000000000000000000000000000000000000000000000005b169281516370a0823160e01b815233828201526020908181602481895afa908115610e62578891610ee1575b50848110610ec557508251636eb1769f60e11b815233838201523060248201528181604481895afa908115610e62578891610e98575b50848110610e7c5750610d8a84876119da565b94610d97866003546117eb565b6003558780808089335af1610daa611814565b5015610e6c5781889160648651809481936323b872dd60e01b835233898401523060248401528a60448401525af1918215610e62578892610e35575b505015610e27575090610e217fdb6c1cc84b96330a9be015b7f4d49df42a035945bf4bc3423e48a6e4259dbb7b93925192839233968461185b565b0390a280f35b90516318161dad60e21b8152fd5b610e549250803d10610e5b575b610e4c81836115e2565b810190611843565b5f80610de6565b503d610e42565b84513d8a823e3d90fd5b8351632fdb18b560e01b81528390fd5b90508360449351926377594e6960e01b84528301526024820152fd5b90508181813d8311610ebe575b610eaf81836115e2565b810103126106a357515f610d77565b503d610ea5565b905083604493519263053ab6d560e21b84528301526024820152fd5b90508181813d8311610f07575b610ef881836115e2565b810103126106a357515f610d41565b503d610eee565b7f0000000000000000000000000000000000000000000000000000000000000000610d15565b634e487b7160e01b865260218452602486fd5b815163086b2ac360e41b81528490fd5b516378e34bb960e01b81529050fd5b51632688641b60e21b81529050fd5b508290346101fb57816003193601126101fb57610f90611730565b825481516370a0823160e01b81523081860152602094909184906001600160a01b03168684602481845afa93841561108c5782946110f2575b5083611096575b610fdc6003548761175b565b9382600355813b156101bc578551632770a7eb60e21b815230858201908152602081019290925291839183919082908490829060400103925af1801561108c57908291611078575b50808085335af1611033611814565b501561106a575081519081527f316a0bcd9820c43f9ba8738fd680d536a8ac65080f56f96833f696f6dd5a12fd843392a251908152f35b8251632fdb18b560e01b8152fd5b611081906115ba565b610457578087611024565b85513d84823e3d90fd5b9450670de0b6b3a76400006110cb7f000000000000000000000000000000000000000000000000000000000000000085611799565b04946002548087116110ea575b866110e2916117eb565b600255610fd0565b9550856110d8565b9093508681813d831161111a575b61110a81836115e2565b810103126106a357519287610fc9565b503d611100565b8382346101fb57816003193601126101fb57517f00000000000000000000000000000000000000000000000000000000000000006001600160a01b03168152602090f35b508290346101fb57602090816003193601126101bc57835481516370a0823160e01b815233818701528535936001600160a01b0390921691908181602481865afa90811561094e5790859187916112b0575b50106112a057670de0b6b3a76400006111f07f000000000000000000000000000000000000000000000000000000000000000086611799565b04916111fe836002546117eb565b600255803b1561129c578351632770a7eb60e21b815233818901908152602081018790529091879183919082908490829060400103925af1801561094e57611289575b508480808085335af1611252611814565b501561092a57825193845283015233917faeb4b315a6442ab135da41b9b7b337c712b68e5a6051ef6299965f3e58dbebbb9190a280f35b611295909591956115ba565b9386611241565b8580fd5b82516328f48e2f60e01b81528690fd5b809250838092503d83116112da575b6112c981836115e2565b8101031261129c57849051886111b7565b503d6112bf565b8382346101fb57602090610c0a6112f73661159b565b90611878565b8382346101fb57816003193601126101fb57517f00000000000000000000000000000000000000000000000000000000000000006001600160a01b03168152602090f35b8382346101fb57816003193601126101fb576113729061135f611604565b905191829160208352602083019061170b565b0390f35b9190506113823661159b565b939092841561158f575060ff815460a01c166115815784546001600160a01b039081163314611572576113b58585611878565b3403611563576002841015611550578361152a577f00000000000000000000000000000000000000000000000000000000000000005b168251906370a0823160e01b825230838301526020918281602481855afa9081156115205788916114ef575b5086116114cc5761142a3460035461175b565b600355835163a9059cbb60e01b815233848201908152602081018890529091839183919082908b90829060400103925af19182156114c25787926114a5575b505015610e2757507f78408fb808ae2018d121a91ae47221eb4b85530dc14522ce2ddcb93083e269d691610e219151918291339534918461185b565b6114bb9250803d10610e5b57610e4c81836115e2565b5f80611469565b84513d89823e3d90fd5b835163a4d71b8160e01b8152604490876114e8828701896117ca565b6024820152fd5b90508281813d8311611519575b61150681836115e2565b8101031261151557515f611417565b8780fd5b503d6114fc565b85513d8a823e3d90fd5b7f00000000000000000000000000000000000000000000000000000000000000006113eb565b634e487b7160e01b865260218252602486fd5b5090516309c860a960e31b8152fd5b50905163086b2ac360e41b8152fd5b90516378e34bb960e01b8152fd5b632688641b60e21b8152fd5b60409060031901126106a35760043560028110156106a3579060243590565b67ffffffffffffffff81116115ce57604052565b634e487b7160e01b5f52604160045260245ffd5b90601f8019910116810190811067ffffffffffffffff8211176115ce57604052565b604051905f60019081549182811c908084169384156116e0575b60209485841081146116cc57838852879493929181156116ac5750600114611651575b505061164f925003836115e2565b565b5f8181527fb10e2d527612073b26eecdfd717e6a320cf44b4afac2b0732d9fcbe2b7fa0cf695935091905b81831061169457505061164f93508201015f80611641565b8554888401850152948501948794509183019161167c565b91505061164f94925060ff191682840152151560051b8201015f80611641565b634e487b7160e01b85526022600452602485fd5b91607f169161161e565b5f5b8381106116fb5750505f910152565b81810151838201526020016116ec565b90602091611724815180928185528580860191016116ea565b601f01601f1916010190565b5f546001600160a01b0316330361174357565b60405163118cdaa760e01b8152336004820152602490fd5b9190820180921161176857565b634e487b7160e01b5f52601160045260245ffd5b90670de0b6b3a76400009182810292818404149015171561176857565b8181029291811591840414171561176857565b81156117b6570490565b634e487b7160e01b5f52601260045260245ffd5b9060028210156117d75752565b634e487b7160e01b5f52602160045260245ffd5b9190820391821161176857565b67ffffffffffffffff81116115ce57601f01601f191660200190565b3d1561183e573d90611825826117f8565b9161183360405193846115e2565b82523d5f602084013e565b606090565b908160209103126106a3575180151581036106a35790565b60409194939261186f8260608101976117ca565b60208201520152565b61188190611aba565b8282106119c8576040516318160ddd60e01b8152906020826004817f00000000000000000000000000000000000000000000000000000000000000006001600160a01b03165afa9182156119bd575f92611988575b506119568361195061193361193361194a896119448961193e836119386ec097ce7bc90715b34b9f10000000009f9d9c6119849f61192561197f9f61192b9261191e916117eb565b92876117eb565b8261175b565b998a9161177c565b6117ac565b996117eb565b906117eb565b9361175b565b9161177c565b9061175b565b60011c7f0000000000000000000000000000000000000000000000000000000000000000611799565b611799565b0490565b90916020823d82116119b5575b816119a2602093836115e2565b81010312610457575051906119566118d6565b3d9150611995565b6040513d5f823e3d90fd5b60405163224e54d760e01b8152600490fd5b6119e390611aba565b6040516318160ddd60e01b8152906020826004817f00000000000000000000000000000000000000000000000000000000000000006001600160a01b03165afa9182156119bd575f92611a85575b506119568361195061193361193361194a89611a7f8961193e83611a796ec097ce7bc90715b34b9f10000000009f9d9c6119849f61192561197f9f61192b9261191e916117eb565b9961175b565b936117eb565b90916020823d8211611ab2575b81611a9f602093836115e2565b8101031261045757505190611956611a31565b3d9150611a92565b60028110156117d757611bcf576040516370a0823160e01b808252306004830152602092916001600160a01b039084816024817f000000000000000000000000000000000000000000000000000000000000000086165afa9283156119bd5785915f94611b9d575b5060246040518094819382523060048301527f0000000000000000000000000000000000000000000000000000000000000000165afa9384156119bd575f94611b6c575b50509190565b8181959293953d8311611b96575b611b8481836115e2565b81010312610457575051915f80611b66565b503d611b7a565b9182819592953d8311611bc8575b611bb581836115e2565b810103126104575750849051925f611b22565b503d611bab565b6040516370a0823160e01b808252306004830152602092916001600160a01b039084816024817f000000000000000000000000000000000000000000000000000000000000000086165afa9283156119bd5785915f94611c73575b5060246040518094819382523060048301527f0000000000000000000000000000000000000000000000000000000000000000165afa9384156119bd575f94611b6c5750509190565b9182819592953d8311611c9e575b611c8b81836115e2565b810103126104575750849051925f611c2a565b503d611c81565b6020818303126106a35780519067ffffffffffffffff82116106a3570181601f820112156106a3578051611cd8816117f8565b92611ce660405194856115e2565b818452602082840101116106a357611d0491602080850191016116ea565b9056fea2646970667358221220ecbac09a3484e99cda14cb655e5c65001b91cbe1a02f44a60bf09bfa8f764b4164736f6c6343000814003360406080815234620003ba5762000d5d803803806200001e81620003be565b9283398101608082820312620003ba5781516001600160401b039290838111620003ba578262000050918301620003e4565b906020928382015190858211620003ba576200006e918301620003e4565b8186015190926001600160a01b038216929091839003620003ba5760600151948151818111620002c5576003908154906001948583811c93168015620003af575b898410146200039b578190601f9384811162000348575b508990848311600114620002e5575f92620002d9575b50505f1982851b1c191690851b1782555b8551928311620002c55760049586548581811c91168015620002ba575b89821014620002a7578281116200025f575b5087918411600114620001f8579383949184925f95620001ec575b50501b925f19911b1c19161782555b60018060a01b03193381600554161760055560065416176006553315620001d65760025490838201809211620001c357505f917fddf252ad1be2c89b69c2b068fc378daa952ba7f163c4a11628f55a4df523b3ef9160025533835282815284832084815401905584519384523393a3516109089081620004558239f35b601190634e487b7160e01b5f525260245ffd5b6024905f85519163ec442f0560e01b8352820152fd5b015193505f8062000137565b9190601f19841692875f5284895f20945f5b8b898383106200024757505050106200022d575b50505050811b01825562000146565b01519060f8845f19921b161c191690555f8080806200021e565b8686015189559097019694850194889350016200020a565b875f52885f208380870160051c8201928b88106200029d575b0160051c019086905b828110620002915750506200011c565b5f815501869062000281565b9250819262000278565b602288634e487b7160e01b5f525260245ffd5b90607f16906200010a565b634e487b7160e01b5f52604160045260245ffd5b015190505f80620000dc565b90879350601f19831691865f528b5f20925f5b8d82821062000331575050841162000319575b505050811b018255620000ed565b01515f1983871b60f8161c191690555f80806200030b565b8385015186558b97909501949384019301620002f8565b909150845f52895f208480850160051c8201928c861062000391575b918991869594930160051c01915b82811062000382575050620000c6565b5f815585945089910162000372565b9250819262000364565b634e487b7160e01b5f52602260045260245ffd5b92607f1692620000af565b5f80fd5b6040519190601f01601f191682016001600160401b03811183821017620002c557604052565b919080601f84011215620003ba5782516001600160401b038111620002c5576020906200041a601f8201601f19168301620003be565b92818452828287010111620003ba575f5b818110620004405750825f9394955001015290565b85810183015184820184015282016200042b56fe6080604081815260049182361015610015575f80fd5b5f92833560e01c91826306fdde03146106a857508163095ea7b3146105fe57816318160ddd146105df57816323b872dd146104cd578163313ce567146104b157816340c10f19146103e95781635b8bec55146103c057816370a082311461038957816395d89b411461026a5781639dc29fac1461017a578163a9059cbb1461012457508063dd62ed3e146100dc5763def114b6146100b1575f80fd5b346100d857816003193601126100d85760055490516001600160a01b039091168152602090f35b5080fd5b50346100d857806003193601126100d857806020926100f96107c7565b6101016107e1565b6001600160a01b0391821683526001865283832091168252845220549051908152f35b8284346101775781600319360112610177575061013f6107c7565b9160018060a01b03600654163314610169575061016260209260243590336107f7565b5160018152f35b905163ec0511b360e01b8152fd5b80fd5b839150346100d857826003193601126100d8576101956107c7565b6005549091602435916001600160a01b03908116330361025b578316928315610244578385528460205285852054918383106102105750508184957fddf252ad1be2c89b69c2b068fc378daa952ba7f163c4a11628f55a4df523b3ef936020938688528785520381872055816002540360025551908152a380f35b865163391434e360e21b81526001600160a01b03909216908201908152602081018390526040810184905281906060010390fd5b8551634b637e8f60e11b8152808301869052602490fd5b508451631e29ea2960e11b8152fd5b8383346100d857816003193601126100d857805190828454600181811c9080831692831561037f575b602093848410811461036c5783885290811561035057506001146102fb575b505050829003601f01601f191682019267ffffffffffffffff8411838510176102e857508291826102e4925282610780565b0390f35b634e487b7160e01b815260418552602490fd5b8787529192508591837f8a35acfbc15ff81a39ae7d344fd709f28e8600b4aa8c65c6b64bfe7fe36bd19b5b83851061033c57505050508301018580806102b2565b805488860183015293019284908201610326565b60ff1916878501525050151560051b84010190508580806102b2565b634e487b7160e01b895260228a52602489fd5b91607f1691610293565b5050346100d85760203660031901126100d85760209181906001600160a01b036103b16107c7565b16815280845220549051908152f35b5050346100d857816003193601126100d85760065490516001600160a01b039091168152602090f35b919050346104ad57806003193601126104ad576104046107c7565b60055460243592916001600160a01b03918216330361049d57169283156104885760025490838201809211610475575084927fddf252ad1be2c89b69c2b068fc378daa952ba7f163c4a11628f55a4df523b3ef9260209260025585855284835280852082815401905551908152a380f35b634e487b7160e01b865260119052602485fd5b84602492519163ec442f0560e01b8352820152fd5b825163294c9fd360e01b81528590fd5b8280fd5b5050346100d857816003193601126100d8576020905160128152f35b90508234610177576060366003190112610177576104e96107c7565b6104f16107e1565b60065460443594919391906001600160a01b03848116911681146105d057808352600160205286832033845260205286832054915f19831061053c575b6020886101628989896107f7565b8683106105a457811561058d573315610576575082526001602090815286832033845281529186902090859003905582906101628761052e565b8751634a1406b160e11b8152908101849052602490fd5b875163e602df0560e01b8152908101849052602490fd5b8751637dc7a0d960e11b8152339181019182526020820193909352604081018790528291506060010390fd5b50855163ec0511b360e01b8152fd5b5050346100d857816003193601126100d8576020906002549051908152f35b9050346104ad57816003193601126104ad576106186107c7565b602435903315610691576001600160a01b031691821561067a57508083602095338152600187528181208582528752205582519081527f8c5be1e5ebec7d5bd14f71427d1e84f3dd0314c0f7b2291e5b200ac8c7c3b925843392a35160018152f35b8351634a1406b160e11b8152908101859052602490fd5b835163e602df0560e01b8152808401869052602490fd5b849084346104ad57826003193601126104ad5782600354600181811c90808316928315610776575b602093848410811461036c57838852908115610350575060011461072057505050829003601f01601f191682019267ffffffffffffffff8411838510176102e857508291826102e4925282610780565b600387529192508591837fc2575a0e9e593c00f959f8c92f12db2869c3395a3b0502d05e2516446f71f85b5b83851061076257505050508301018580806102b2565b80548886018301529301928490820161074c565b91607f16916106d0565b602080825282518183018190529093925f5b8281106107b357505060409293505f838284010152601f8019910116010190565b818101860151848201604001528501610792565b600435906001600160a01b03821682036107dd57565b5f80fd5b602435906001600160a01b03821682036107dd57565b916001600160a01b038084169283156108ba57169283156108a2575f9083825281602052604082205490838210610870575091604082827fddf252ad1be2c89b69c2b068fc378daa952ba7f163c4a11628f55a4df523b3ef958760209652828652038282205586815220818154019055604051908152a3565b60405163391434e360e21b81526001600160a01b03919091166004820152602481019190915260448101839052606490fd5b60405163ec442f0560e01b81525f6004820152602490fd5b604051634b637e8f60e11b81525f6004820152602490fdfea26469706673582212207c5bd2a1d79cd22e433407558d48ed5eb6dc5d3e149d85f34169ae02bc9e9da864736f6c63430008140033",
  "linkReferences": {},
  "deployedLinkReferences": {},
  "immutableReferences": {
    "997": [
      {
        "length": 32,
        "start": 1441
      },
      {
        "length": 32,
        "start": 2832
      },
      {
        "length": 32,
        "start": 4406
      }
    ],
    "999": [
      {
        "length": 32,
        "start": 590
      },
      {
        "length": 32,
        "start": 1038
      },
      {
        "length": 32,
        "start": 1480
      },
      {
        "length": 32,
        "start": 1900
      },
      {
        "length": 32,
        "start": 4262
      },
      {
        "length": 32,
        "start": 4555
      },
      {
        "length": 32,
        "start": 6491
      }
    ],
    "1001": [
      {
        "length": 32,
        "start": 1618
      },
      {
        "length": 32,
        "start": 2684
      }
    ],
    "1003": [
      {
        "length": 32,
        "start": 472
      },
      {
        "length": 32,
        "start": 1579
      }
    ],
    "1012": [
      {
        "length": 32,
        "start": 638
      },
      {
        "length": 32,
        "start": 1217
      },
      {
        "length": 32,
        "start": 1993
      },
      {
        "length": 32,
        "start": 2916
      },
      {
        "length": 32,
        "start": 3110
      },
      {
        "length": 32,
        "start": 3317
      },
      {
        "length": 32,
        "start": 5067
      },
      {
        "length": 32,
        "start": 6302
      },
      {
        "length": 32,
        "start": 6649
      },
      {
        "length": 32,
        "start": 6895
      },
      {
        "length": 32,
        "start": 7230
      }
    ],
    "1015": [
      {
        "length": 32,
        "start": 745
      },
      {
        "length": 32,
        "start": 1181
      },
      {
        "length": 32,
        "start": 2058
      },
      {
        "length": 32,
        "start": 3002
      },
      {
        "length": 32,
        "start": 3856
      },
      {
        "length": 32,
        "start": 4882
      },
      {
        "length": 32,
        "start": 5420
      },
      {
        "length": 32,
        "start": 6966
      },
      {
        "length": 32,
        "start": 7159
      }
    ]
  },
  "inputSourceName": "project/contracts/PredictionMarket.sol",
  "devdoc": {
    "errors": {
      "OwnableInvalidOwner(address)": [
        {
          "details": "The owner is not a valid owner account. (eg. `address(0)`)"
        }
      ],
      "OwnableUnauthorizedAccount(address)": [
        {
          "details": "The caller account is not authorized to perform an operation."
        }
      ]
    },
    "kind": "dev",
    "methods": {
      "addLiquidity()": {
        "details": "オーナーのみが呼び出せ、かつ予測結果がまだ報告されていない場合のみ実行できる"
      },
      "buyTokensWithETH(uint8,uint256)": {
        "params": {
          "_amountTokenToBuy": "購入するトークンの量",
          "_outcome": "購入したい結果(YESまたはNO)"
        }
      },
      "constructor": {
        "params": {
          "_initialTokenValue": "勝ったトークンが支払うETH価値(例:0.01 ETH)",
          "_initialYesProbability": "開始時点で「Yes」がどれくらい起こりそうか(例:50%なら50)",
          "_liquidityProvider": "Ownableにそのまま渡されるオーナーアドレス",
          "_oracle": "後で結果を報告することになるアドレス",
          "_percentageToLock": "確率・価格ロジックで使われる値(詳細はCheckpoint 3で掘り下げます)",
          "_question": "実際に問われる予測の内容(例:「緑の車は勝つか?」)"
        }
      },
      "getBuyPriceInEth(uint8,uint256)": {
        "params": {
          "_outcome": "購入したい結果(YESまたはNO)",
          "_tradingAmount": "購入するトークンの量"
        },
        "returns": {
          "_0": "合計ETH価格"
        }
      },
      "getSellPriceInEth(uint8,uint256)": {
        "params": {
          "_outcome": "売却したい結果(YESまたはNO)",
          "_tradingAmount": "売却するトークンの量"
        },
        "returns": {
          "_0": "合計ETH価格"
        }
      },
      "owner()": {
        "details": "Returns the address of the current owner."
      },
      "redeemWinningTokens(uint256)": {
        "details": "予測結果が確定している場合のみ実行できる",
        "params": {
          "_amount": "償還する勝ちトークンの量"
        }
      },
      "removeLiquidity(uint256)": {
        "details": "オーナーのみが呼び出せ、かつ予測結果がまだ報告されていない場合のみ実行できる",
        "params": {
          "_ethToWithdraw": "流動性プールから引き出すETHの量"
        }
      },
      "renounceOwnership()": {
        "details": "Leaves the contract without owner. It will not be possible to call `onlyOwner` functions. Can only be called by the current owner. NOTE: Renouncing ownership will leave the contract without an owner, thereby disabling any functionality that is only available to the owner."
      },
      "report(uint8)": {
        "details": "オラクルのみが呼び出せ、かつ予測結果がまだ報告されていない場合のみ実行できる",
        "params": {
          "_winningOutcome": "勝った結果(YESまたはNO)"
        }
      },
      "resolveMarketAndWithdraw()": {
        "details": "オーナーのみが呼び出せ、かつ予測結果が確定している場合のみ実行できる",
        "returns": {
          "ethRedeemed": "償還されたETHの量"
        }
      },
      "sellTokensForEth(uint8,uint256)": {
        "params": {
          "_outcome": "売却したい結果(YESまたはNO)",
          "_tradingAmount": "売却するトークンの量"
        }
      },
      "transferOwnership(address)": {
        "details": "Transfers ownership of the contract to a new account (`newOwner`). Can only be called by the current owner."
      }
    },
    "title": "予測市場用のスマートコントラクト",
    "version": 1
  },
  "evm": {
    "gasEstimates": {
      "creation": {
        "codeDepositCost": "1497000",
        "executionCost": "infinite",
        "totalCost": "infinite"
      },
      "external": {
        "addLiquidity()": "infinite",
        "buyTokensWithETH(uint8,uint256)": "infinite",
        "getBuyPriceInEth(uint8,uint256)": "infinite",
        "getPrediction()": "infinite",
        "getSellPriceInEth(uint8,uint256)": "infinite",
        "i_initialTokenValue()": "infinite",
        "i_initialYesProbability()": "infinite",
        "i_noToken()": "infinite",
        "i_oracle()": "infinite",
        "i_percentageLocked()": "infinite",
        "i_yesToken()": "infinite",
        "owner()": "2566",
        "redeemWinningTokens(uint256)": "infinite",
        "removeLiquidity(uint256)": "infinite",
        "renounceOwnership()": "28248",
        "report(uint8)": "infinite",
        "resolveMarketAndWithdraw()": "infinite",
        "s_ethCollateral()": "2721",
        "s_isReported()": "2693",
        "s_lpTradingRevenue()": "2567",
        "s_question()": "infinite",
        "s_winningToken()": "2630",
        "sellTokensForEth(uint8,uint256)": "infinite",
        "transferOwnership(address)": "28636"
      },
      "internal": {
        "_calculatePriceInEth(enum PredictionMarket.Outcome,uint256,bool)": "infinite",
        "_calculateProbability(uint256,uint256)": "infinite",
        "_getCurrentReserves(enum PredictionMarket.Outcome)": "infinite"
      }
    }
  },
  "storageLayout": {
    "storage": [
      {
        "astId": 8,
        "contract": "project/contracts/PredictionMarket.sol:PredictionMarket",
        "label": "_owner",
        "offset": 0,
        "slot": "0",
        "type": "t_address"
      },
      {
        "astId": 1005,
        "contract": "project/contracts/PredictionMarket.sol:PredictionMarket",
        "label": "s_question",
        "offset": 0,
        "slot": "1",
        "type": "t_string_storage"
      },
      {
        "astId": 1007,
        "contract": "project/contracts/PredictionMarket.sol:PredictionMarket",
        "label": "s_ethCollateral",
        "offset": 0,
        "slot": "2",
        "type": "t_uint256"
      },
      {
        "astId": 1009,
        "contract": "project/contracts/PredictionMarket.sol:PredictionMarket",
        "label": "s_lpTradingRevenue",
        "offset": 0,
        "slot": "3",
        "type": "t_uint256"
      },
      {
        "astId": 1018,
        "contract": "project/contracts/PredictionMarket.sol:PredictionMarket",
        "label": "s_winningToken",
        "offset": 0,
        "slot": "4",
        "type": "t_contract(PredictionMarketToken)2369"
      },
      {
        "astId": 1020,
        "contract": "project/contracts/PredictionMarket.sol:PredictionMarket",
        "label": "s_isReported",
        "offset": 20,
        "slot": "4",
        "type": "t_bool"
      }
    ],
    "types": {
      "t_address": {
        "encoding": "inplace",
        "label": "address",
        "numberOfBytes": "20"
      },
      "t_bool": {
        "encoding": "inplace",
        "label": "bool",
        "numberOfBytes": "1"
      },
      "t_contract(PredictionMarketToken)2369": {
        "encoding": "inplace",
        "label": "contract PredictionMarketToken",
        "numberOfBytes": "20"
      },
      "t_string_storage": {
        "encoding": "bytes",
        "label": "string",
        "numberOfBytes": "32"
      },
      "t_uint256": {
        "encoding": "inplace",
        "label": "uint256",
        "numberOfBytes": "32"
      }
    }
  },
  "userdoc": {
    "errors": {
      "PredictionMarket__MustProvideETHForInitialLiquidity()": [
        {
          "notice": "エラー //////"
        }
      ]
    },
    "events": {
      "TokensPurchased(address,uint8,uint256,uint256)": {
        "notice": "イベント //////"
      }
    },
    "kind": "user",
    "methods": {
      "addLiquidity()": {
        "notice": "予測市場に流動性を追加し、トークンをミントする"
      },
      "buyTokensWithETH(uint8,uint256)": {
        "notice": "ETHで予測結果トークンを購入する。事前にpriceInETH関数を呼び出して正しい購入量を確認する必要がある"
      },
      "constructor": {
        "notice": "コンストラクター"
      },
      "getBuyPriceInEth(uint8,uint256)": {
        "notice": "トークン購入にかかる合計ETH価格を計算する"
      },
      "getPrediction()": {
        "notice": "予測市場の詳細情報を取得するメソッド"
      },
      "getSellPriceInEth(uint8,uint256)": {
        "notice": "トークン売却で得られる合計ETH価格を計算する"
      },
      "redeemWinningTokens(uint256)": {
        "notice": "予測結果が確定した後、勝ちトークンをETHと交換する。勝ちトークンはバーンされ、ユーザーはETHを受け取る"
      },
      "removeLiquidity(uint256)": {
        "notice": "予測市場から流動性を引き出し、対応するトークンをバーンする。予測結果が確定する前に流動性を引き出した場合、lpReserveの取り分は得られない"
      },
      "report(uint8)": {
        "notice": "予測結果の勝敗をオラクルが報告する"
      },
      "resolveMarketAndWithdraw()": {
        "notice": "予測結果が確定した後、コントラクトオーナーがコントラクトの保有する勝ちトークンを償還し、LPの取引収益と担保も含めてETHを引き出せる"
      },
      "sellTokensForEth(uint8,uint256)": {
        "notice": "予測結果トークンを売却してETHを受け取る。事前にpriceInETH関数を呼び出して正しい売却量を確認する必要がある"
      }
    },
    "version": 1
  },
  "argsData": "0x000000000000000000000000e6aa1b60c4ec760668db3c06d7a894c5fd39d0aa000000000000000000000000e6aa1b60c4ec760668db3c06d7a894c5fd39d0aa00000000000000000000000000000000000000000000000000000000000000c0000000000000000000000000000000000000000000000000002386f26fc100000000000000000000000000000000000000000000000000000000000000000032000000000000000000000000000000000000000000000000000000000000000a000000000000000000000000000000000000000000000000000000000000002057696c6c2074686520677265656e206361722077696e2074686520726163653f",
  "transaction": {
    "hash": "0xe76886bccca37203673ecddaf1e9d6183256444248f9d294144ecf004fb5c26e",
    "nonce": "0x0",
    "origin": "0xe6aa1b60c4ec760668db3c06d7a894c5fd39d0aa"
  }
}